:1000000068E070E080E090E00E94008080E040E7DF
:1000100057E160E070E00E940980882319F086E9CA
:1000200090E002C083EB90E00E941280089580E08F
:1000300040E757E160E070E00E940980882319F0F2
:1000400080E690E002C08FE790E00E9412800E945C
:04005000008108958E
:100054004C454B4B41533A20434F554C44204E4F53
:10006400542052455345542054494D45522E004C7A
:10007400454B4B41533A2054494D45522052455328
:100084004554204F4B004C454B4B41533A20434F72
:10009400554C44204E4F54205345542054494D450B
:1000A400522E004C454B4B41533A2054494D455236
:0800B40020534554204F4B007E
:00000001FF
